:020000040000fa
:080000000002040000000000f2
:020000040000fa
:040008001a030000d7
:020000040000fa
:04000c002c030000c1
:020000040000fa
:0400100044030000a5
:020000040000fa
:0400140022030000c3
:020000040000fa
:0400180034030000ad
:020000040000fa
:04001c003c030000a1
:020000040000fa
:040020004c0300008d
:020000040000fa
:040024006403000071
:020000040000fa
:04002800640300006d
:020000040000fa
:04002c006403000069
:020000040000fa
:040030006403000065
:020000040000fa
:04003400623f000027
:020000040000fa
:04003800640300005d
:020000040000fa
:04003c006403000059
:020000040000fa
:040040006403000055
:020000040000fa
:040044006403000051
:020000040000fa
:04004800640300004d
:020000040000fa
:04004c006403000049
:020000040000fa
:040050006403000045
:020000040000fa
:040054006403000041
:020000040000fa
:04005800640300003d
:020000040000fa
:04005c006403000039
:020000040000fa
:040060006403000035
:020000040000fa
:040064006403000031
:020000040000fa
:04006800640300002d
:020000040000fa
:04006c00fc3800005c
:020000040000fa
:040070006403000025
:020000040000fa
:040074006403000021
:020000040000fa
:04007800640300001d
:020000040000fa
:04007c006403000019
:020000040000fa
:040080006403000015
:020000040000fa
:040084006403000011
:020000040000fa
:04008800640300000d
:020000040000fa
:04008c006403000009
:020000040000fa
:040090006403000005
:020000040000fa
:040094006403000001
:020000040000fa
:0400980064030000fd
:020000040000fa
:04009c0064030000f9
:020000040000fa
:0400a00064030000f5
:020000040000fa
:0400a40064030000f1
:020000040000fa
:0400a80064030000ed
:020000040000fa
:0400ac0064030000e9
:020000040000fa
:0400b00064030000e5
:020000040000fa
:0400b40064030000e1
:020000040000fa
:0400b80064030000dd
:020000040000fa
:0400bc0064030000d9
:020000040000fa
:0400c00064030000d5
:020000040000fa
:0400c40064030000d1
:020000040000fa
:0400c80064030000cd
:020000040000fa
:0400cc0064030000c9
:020000040000fa
:0400d00064030000c5
:020000040000fa
:0400d40064030000c1
:020000040000fa
:0400d80064030000bd
:020000040000fa
:0400dc0064030000b9
:020000040000fa
:0400e00064030000b5
:020000040000fa
:0400e40064030000b1
:020000040000fa
:0400e80064030000ad
:020000040000fa
:0400ec0064030000a9
:020000040000fa
:0400f00064030000a5
:020000040000fa
:0400f40064030000a1
:020000040000fa
:0400f800640300009d
:020000040000fa
:0400fc006403000099
:020000040000fa
:040100006403000094
:020000040000fa
:040104006403000090
:020000040000fa
:04010800640300008c
:020000040000fa
:04010c006403000088
:020000040000fa
:040110006403000084
:020000040000fa
:040114006403000080
:020000040000fa
:04011800640300007c
:020000040000fa
:04011c006403000078
:020000040000fa
:040120006403000074
:020000040000fa
:040124006403000070
:020000040000fa
:04012800640300006c
:020000040000fa
:04012c006403000068
:020000040000fa
:040130006403000064
:020000040000fa
:040134006403000060
:020000040000fa
:04013800640300005c
:020000040000fa
:04013c006403000058
:020000040000fa
:040140006403000054
:020000040000fa
:040144006403000050
:020000040000fa
:04014800640300004c
:020000040000fa
:04014c006403000048
:020000040000fa
:040150006403000044
:020000040000fa
:040154006403000040
:020000040000fa
:04015800640300003c
:020000040000fa
:04015c006403000038
:020000040000fa
:040160006403000034
:020000040000fa
:040164006403000030
:020000040000fa
:04016800640300002c
:020000040000fa
:04016c006403000028
:020000040000fa
:040170006403000024
:020000040000fa
:040174006403000020
:020000040000fa
:04017800640300001c
:020000040000fa
:04017c006403000018
:020000040000fa
:040180006403000014
:020000040000fa
:040184006403000010
:020000040000fa
:04018800640300000c
:020000040000fa
:04018c006403000008
:020000040000fa
:040190006403000004
:020000040000fa
:040194006403000000
:020000040000fa
:0401980064030000fc
:020000040000fa
:04019c0064030000f8
:020000040000fa
:0401a00064030000f4
:020000040000fa
:0401a40064030000f0
:020000040000fa
:0401a80064030000ec
:020000040000fa
:0401ac0064030000e8
:020000040000fa
:0401b00064030000e4
:020000040000fa
:0401b40064030000e0
:020000040000fa
:0401b80064030000dc
:020000040000fa
:0401bc0064030000d8
:020000040000fa
:0401c00064030000d4
:020000040000fa
:0401c40064030000d0
:020000040000fa
:0401c80064030000cc
:020000040000fa
:0401cc0064030000c8
:020000040000fa
:0401d00064030000c4
:020000040000fa
:0401d40064030000c0
:020000040000fa
:0401d80064030000bc
:020000040000fa
:0401dc0064030000b8
:020000040000fa
:0401e00064030000b4
:020000040000fa
:0401e40064030000b0
:020000040000fa
:0401e80064030000ac
:020000040000fa
:0401ec0064030000a8
:020000040000fa
:0401f00064030000a4
:020000040000fa
:0401f40064030000a0
:020000040000fa
:0401f800640300009c
:020000040000fa
:0401fc006403000098
:020000040000fa
:040200006403000093
:020000040000fa
:04020400640300008f
:020000040000fa
:04020800640300008b
:020000040000fa
:04020c006403000087
:020000040000fa
:040210006403000083
:020000040000fa
:04021400640300007f
:020000040000fa
:04021800640300007b
:020000040000fa
:04021c006403000077
:020000040000fa
:040220006403000073
:020000040000fa
:04022400640300006f
:020000040000fa
:04022800640300006b
:020000040000fa
:04022c006403000067
:020000040000fa
:040230006403000063
:020000040000fa
:04023400640300005f
:020000040000fa
:04023800640300005b
:020000040000fa
:04023c006403000057
:020000040000fa
:040240006403000053
:020000040000fa
:04024400640300004f
:020000040000fa
:04024800640300004b
:020000040000fa
:04024c006403000047
:020000040000fa
:040250006403000043
:020000040000fa
:04025400640300003f
:020000040000fa
:04025800640300003b
:020000040000fa
:04025c006403000037
:020000040000fa
:040260006403000033
:020000040000fa
:04026400640300002f
:020000040000fa
:04026800640300002b
:020000040000fa
:04026c006403000027
:020000040000fa
:040270006403000023
:020000040000fa
:04027400640300001f
:020000040000fa
:04027800640300001b
:020000040000fa
:04027c006403000017
:020000040000fa
:040280006403000013
:020000040000fa
:100400002f5921000eff24000e018800000000007b
:10041000000020000000e000020032000001200087
:100420002002880014000700ed0007000000e00033
:1004300003003a0000d7220001002000020037002c
:100440000000200001002000810f70000100320038
:100450000f000700000020000000e0000200320052
:100460000000020000000000383d02000000000013
:100470000040da000000fe00e02720000000e0005d
:1004800002003200002020009001880000000600d9
:10049000a1028800800478000000eb001f003700f4
:1004a000e284440054a0b4009905ba00e2844400f8
:1004b00054a0b4009906ba00e284440054a0b400e9
:1004c0000006eb00476fde00fd07b200ae018800ba
:1004d000636ce10003003a000ad801000000eb0061
:1004e0000e003700606ce10008003a00004deb00a0
:1004f0000a05e800020039003420ec000af0a000f0
:100500008b05e900f9ff3e00040037006168e10057
:10051000010032000086eb000b00070019c7ba008b
:100520001905ba000e04e00003003a000a00e000da
:10053000dbff3a0000000600fe07b200ae028800b2
:100540008a047800f5ff37000cd0a300e20f4d00bd
:100550001c00390089027800354dba000a05e80010
:10056000020039003420ec000af0a0008b05e900fd
:100570000f003200254dba000a05e80002003900dc
:100580003420ec000af0a0008b05e90008003200de
:100590000c00e0000600320015cdba000a05e800a4
:1005a000020039003420ec000af0a0008b05e900bd
:1005b0008984e80054a0b4000b00e000e2ff3a0098
:1005c000000006009902ba00055d78008b05e9007d
:1005d000f7ff3200c82ade00055d78008b05e900d0
:1005e000f3ff32000c00e000f1ff320019ddba0029
:1005f000eeff3700063c040000000000a63c0400ab
:1006000000000000cc3b040000000000663b04003a
:10061000000000007608040000000000aa080400a2
:10062000000000005e120400000000000000040052
:10063000000000003600f800c028a9000000eb0010
:10064000d21e07003600f800cb1e0700c048a900e4
:1006500010002000cd1e07003600f800c068a90079
:1006600020002000c91e07003600f800c088a9003d
:1006700030002000c51e07003600f800c0a8a90001
:1006800040002000c11e07003600f800c608a9007f
:1006900070002000bd1e07003600f800c4a8ab00a3
:1006a00003003200c4a8a90090002000b71e070074
:1006b000c488ab0003003200c488a900a000200059
:1006c000b21e0700ffff37000040da000000fe0006
:1006d0000a00fa0011002000b1bf9f00c0bf9f00b8
:1006e0006a805700940b07004fb897000080fa000b
:1006f000000006000a00fa0051002000b1bf9f0070
:10070000c0bf9f006a8057008d0b07005fb897003d
:100710000080fa0000000600889fbe008004780078
:1007200080ac80000000e00004003a000e000700ea
:100730000084eb000000e0000800350088ac800079
:100740000900e0000500320009004400060007002f
:100750000000e00001003d000084eb00080078008c
:100760004f04be0000000600800078000100e00099
:1007700003003a000000200080ac88000000050063
:100780000080eb0002002000828f500002003e003b
:1007900081ac88000000eb0000000600041020007f
:1007a0001011800080016200fdff3200020078001d
:1007b0000000e000090032008002780004102000f0
:1007c0001211800082016200fdff3200b101fb00c6
:1007d000231188008502e900f9ff3a0000000600b5
:1007e0000000050003f0a200889fbe008a9fbe00a3
:1007f0008c1f7800c3000700ca0033006450e1007a
:100800004f0032006420e1005200320003826c008d
:1008100007003b000905d0000306d000820f5400fa
:100820000c065d00020039000200320089017800e8
:10083000030678008582550004003d000003fd009a
:100840008103fd008502ea008b854200840f72005f
:1008500002003b0060001000e08018006011b8004a
:100860000005eb007a28e1000a0039000600780054
:10087000c75ddd00f707b200878075002d003700e7
:10088000828171000a017800610560008180d100d9
:100890000080d3008502e900f9ff3b000604400018
:1008a0008784480002003b0060041400e0841c00c0
:1008b0000988a300070032008a81710082817100db
:1008c000610164008904d1000884d3008b05e8002d
:1008d000170037000978a30013003a000b00e0006e
:1008e000130034008b05e9000804440089844c009f
:1008f0000a4474000978a3000d003a000b00e000e0
:10090000070034008b05e9000804440089844c008a
:1009100001003a000b0020000978a300f7ff320025
:100920000001eb0002003700828171000a017800ab
:100930004e0007000cf0a70001f0a0008200370075
:100940006420e10002003a00838f6c0082003300d3
:100950000801be000200be007b003700889fbe0079
:100960008a9fbe008c1f7800660007006d00330070
:1009700003866c006450e1002e0032006420e10028
:10098000330032006150e1002f0032006120e100ad
:100990003100320085855500eb07b00009002000ca
:1009a00008042000050037000804440089844c0036
:1009b0000a0031000603430087834b000001530007
:1009c00081815b00f8ff33000203be000800a00035
:1009d0000804440089844c00f6ff3900c639dd0064
:1009e0008301730001003200130020008904d1004c
:1009f0000884d3000998a300050032000800a7006e
:100a00000300a0008904d1000884d3008b05e8000e
:100a10008904d1000884d3000001eb000281d200d8
:100a20001200070001f0a1000cf0a70001f0a000e7
:100a3000450037006420e100470032000801be0095
:100a40000200be00f7ff37006120e10042003200e3
:100a50006000b800f3ff37000000200001f8270015
:100a6000f0ff37006011b8007200370081002000ed
:100a7000618055000b003d000b00200061fe2f003f
:100a80000100e1001d0034008281710061016400f9
:100a90008904d1000884d3000000e800faff3a007e
:100aa000710020006100640003007000020060001b
:100ab0000900320061044400e0844c000988a5006c
:100ac000050032008b05e8006808e10002003a00ea
:100ad0008904d1000884d300f20f20000258e100fd
:100ae00005003d00c75ddd00f907b2008980750093
:100af00008007800000006000bf827008b00780043
:100b0000000005000004be00790007000003be00dd
:100b10000405be000200be0075000700844f75008a
:100b2000000006000200be006450e100050036002f
:100b30006420e100020036000968a30001003a00c9
:100b40000800be000160a0004f0678004f05be00ff
:100b50004f04be0000000600f0ff2f00f1ff270049
:100b6000f9ff3700889fbe008a9fbe008c1f780067
:100b7000e4ff0700ebff330003866c006450e100e4
:100b8000240032006420e100270032006150e100bf
:100b9000220032006120e100210032008b854200fa
:100ba000eb07b1000134b800003ab8000804420075
:100bb00089844a00013ab8000030b80088804000bb
:100bc00009014a0004003300000040008180480011
:100bd000020149008b05e900c909dd0083017000ad
:100be0000100320013002000c814de004814dd00ac
:100bf0004709de001200b200c808de000884700059
:100c00009aff070001f0a1000cf0a70001f0a0007e
:100c1000cdff37006120e100cfff32000801be00a8
:100c20000200be00f7ff37006150e100fcff3a0010
:100c3000c9ff3700889fbe008a9fbe0000827000f7
:100c40000402710004827100260032000004be001c
:100c50000200be006011b8006b0920009502200060
:100c60000182cf000a0039000541b1000082cf00a7
:100c7000070039000541b1000982cf0004003900a6
:100c80000541b1000882cf00010039000541b100e3
:100c900005425200120032000a003b0082817100be
:100ca000610164008100d1000080d3008984d300f9
:100cb0000884d3008b05e8000442e800f7ff3a00ff
:100cc000070037000804440089844c0000004800f5
:100cd000818048008b05e9000442e900f9ff3a00f1
:100ce00062ff07004f05be004f04be000000060073
:100cf000c70ade00f107b200f50fb20008003200ab
:100d0000e1cf4200020032000170a0002400050083
:100d1000810f700001003200040805004400050046
:100d2000810f700002003a00140005008502e900fe
:100d30000000400081c04800fcff3b000170a000a3
:100d400024000500c14421002f0007008000780026
:100d50000080eb000100e00004003500c1442100e8
:100d6000a0002000020007004f80de000000060007
:100d7000889fbe008a1f78000004be00c900900052
:100d800069009000808f500005003900090078004c
:100d90008e0007008080eb000000e00016003500a8
:100da000084578004900900008587800c004980071
:100db0001900780000b8a30004003a0000a8a300be
:100dc00007003200ea4f540005003a00090078009d
:100dd000c50507008080eb000000e00006003a0037
:100de00000c020001900600002003200490090009d
:100df000e00498008a80fb00010078004f0578002d
:100e00004f04be0000000600889fbe008a9fbe00ff
:100e10008c1f780080047800010478002f003700d0
:100e2000c800900068009000808f500004003900d6
:100e300008007800650007000000e0003a00350077
:100e400000402000180060000a003200a1002000cd
:100e50000900780050000700000678000c00e00050
:100e600004003200618514000a054600cfd5de007b
:100e700004003700090078003e0007000005be00ae
:100e80000006eb004800900068019000000151004e
:100e9000cf91de008a0f51008b8f59000200310084
:100ea0000205be000006eb000a01be0089007800c2
:100eb00022000700480090000a004000400498000b
:100ec0000c00e000040032000800780086050700ee
:100ed0000000e00014003a008a8444001904e00095
:100ee000cfff3a00008020001800600006003200aa
:100ef000080078007c050700800078000080eb0087
:100f00000100e00009003a0001c020009880600064
:100f10000000eb00050032004800900060049800db
:100f20000000eb00010037000080eb004f06780066
:100f30004f05be004f04be00000006000202be00c6
:100f40008001eb0007003700611bb800060140007c
:100f5000068340001649780061025200e0825a0080
:100f60008301e800e00f5200e08f5a00f6ff3a00dc
:100f700000000600800078000000eb0000814000c7
:100f80000000e8001204e000fcff3a0001005100fc
:100f9000cf80de00000006006011b8006103b800d9
:100fa00006034100e0834b0016427800814f520057
:100fb00001003a00860178000201e8000404e00024
:100fc000f6ff3a000300780000000600889fbe008c
:100fd0008a1f780000047800c80090006801900023
:100fe0000000eb00828f50003d00390018007800af
:100ff0002200290002016000e20f510007003200c8
:10100000012024000000e00001003d00012020003c
:10101000008c70000080eb003100370002002600d9
:1010200002006000820f500009003a003800900072
:10103000808f500006003900080078002a0507005c
:10104000800078000080eb000100e00024003a00fe
:101050001805780000c020000000650019003a0063
:10106000a80490006002200008004000808f540017
:1010700014003a0000202000010020008a0607002a
:10108000200498000000e00005003a0029049800c0
:10109000490498008904e8003904980008003700e2
:1010a0000a60a0000a0c780040049800012020008b
:1010b0008080400031049800400c9800500c98004b
:1010c000b3040700280090005004980038009000f6
:1010d0006004980000002600180c70000000eb006f
:1010e0004f0578004f04be0000000600881f7800fe
:1010f0008a9fbe0000047800010078000205be004f
:10110000880078000202be001200200003002000c8
:10111000bf0507008a0f50008b8f58000100320076
:101120000004eb00080078004f05be004f04780073
:10113000000006000000fa00e88157004fb9970050
:10114000c144210060872000180007000080fa00d9
:1011500000000600881f780002047800080178006b
:1011600076ff0700080040004f04780000000600ea
:101170000000fa00881f780000047800ea81570018
:101180003fb9970088007800a08a20000700070078
:101190000000e0000200350000044400004ceb00b9
:1011a0004f0478000080fa00000006006200fa0098
:1011b000889fbe008a9fbe000005780081047800e9
:1011c000020478008300780060f92f000f004000cf
:1011d000580507008a979f0099979f000000eb0031
:1011e000a09f9f001885fb008a04fb000a05ea0007
:1011f0004f55de0050022000808f54000e00320058
:10120000e10f55000c003a001200200003002000fe
:10121000880078001f9097000f929700040001004b
:1012200090979f000000e000970032002f989700f1
:101230000000e800a09f9f000a0444005002200024
:10124000808f5400040032000900e000e5ff3a00fe
:101250002f9897008d0037000000eb00809f9f00c3
:10126000f0979f00e0979f00d0979f00c0979f0046
:10127000b0979f00c09f9f000005eb00080037005b
:10128000a1552100810050008100d000e2542100ce
:10129000828040004f98970011007000c09f9f000f
:1012a0008a044400994578008b00fb00a05521007a
:1012b000dd0407000a05e8000000e000f0ff3a0046
:1012c000a1c2b30081cf55000e003a00bf8897003d
:1012d0000180e900b08f9f0010007800b09f9f0050
:1012e0000000e00005003d000000ea00b09f9f0004
:1012f0004f9897000020a000c09f9f000904e800bd
:101300000f003700b09f9f006000b8000600370054
:10131000f3ff2700830f500002003200ea00b900fb
:10132000000041008100e800018444001801fb0036
:101330000203b100e90f5100f5ff3600b09f9f0096
:10134000e0c2b300984f1000030032000080eb00b1
:10135000909f9f002000370008007800a1c2b300d2
:10136000d0cf100007003a003f8997008280e90043
:10137000b18f9f0091007800919f9f000004e800ca
:10138000150037000000eb00909f9f008000eb00ed
:1013900006003700f2ff2700820f500002003200e3
:1013a000ea00b900000042008100e8000801e800fe
:1013b0008001eb0002814000e08149001242780088
:1013c0000402fb000403b100e90f5200f1ff3600f4
:1013d000909f9f0002047800984478008900fb00e9
:1013e00060542100900407000000e0000200320079
:1013f0000804e800010037008044eb00a97f9f004b
:1014000080c6b30080cf540004003a0098cf140087
:101410000a003a006640500006003700c0c6b3001c
:1014200080cf540005003a0098cf140003003a0022
:1014300065404000a07f9f000804e8001801fb0001
:10144000c3fb2f008f81410061f92f008f80400086
:1014500080f92f000f004000100007000000e0009e
:1014600009003a00c1fb2f008f80400080f92f0057
:101470000f004000710707000000e0000200350087
:101480000804e80057ff37000080eb004f05be005e
:101490004f04be000080fa0000000600889fbe00d6
:1014a0008a1f7800000478008244780003057800e1
:1014b00070c6b30080cf54001a003c0000c0e900a1
:1014c00080cf5400ce003d006d40500080cf5400ce
:1014d000790032000b003c007140500080cf540076
:1014e00039013c0000c0e90080cf5400c4003d0039
:1014f00050c2b30080cf5400300132007c40400025
:101500000500370030c6b30080cf54001a00320007
:101510001f003c0000c0e90080cf54002a013a00bf
:10152000b7003700f0c6b30080cf5400620032002d
:1015300007003c006640500080cf54001400320089
:101540006540400080cf54001f013a00d8003700aa
:1015500050c7b30080cf54005700320063404000b2
:1015600080cf54005400320002c7b30082cf540031
:1015700015013a00030137001181e9008208780063
:101580007800900000054500124d780014013700e6
:1015900028609000c2c6b300824f500007003a0096
:1015a0001101780064005100800878001000be002e
:1015b0004f89de00820178001100370012c7b300a6
:1015c000824f500003003200a2c6b300824f500089
:1015d00006003a0011017800680051008008780088
:1015e0005001be004000be00050037001180e90038
:1015f0008008780010007800cf80de006109b90013
:10160000009cbe000294be002862900085c6b30014
:10161000854f52000d00320025c6b300854f5200a1
:1016200004003a000000fb00cf80de006109b90031
:101630000800370045c7b300854f52000300320051
:10164000e6c24200854f520004003a00cf80de001f
:101650006109b900009cbe000294be003802be00c1
:101660002803be0078009000e00f5200e08f5a007f
:10167000e00f5b00e08f5b0003003d008000450051
:10168000d2c2b3000a003700881090000118a300ee
:101690000300320080004500b2c2b30004003700ee
:1016a0000108a300510032008000450002c2b300cf
:1016b000824878004b00370028609000c2c6b30013
:1016c000824f500006003a0011017800640051007a
:1016d000800878001000be006011b80011003700cb
:1016e00012c7b300824f500003003200a2c6b300fd
:1016f000824f500006003a00110178006800510046
:10170000800878005001be004000be000500370090
:101710001180e90080087800100078008000eb005c
:101720006011b800009cbe000294be0028629000c8
:1017300085c6b300854f520003003a008000eb00dd
:101740006011b8000e00370025c6b300854f520067
:1017500004003a000080fb008000eb006011b8003c
:101760000700370045c7b300854f52000300320021
:10177000e6c24200854f520003003a006011b800f3
:10178000009cbe000294be00081090000038a30028
:10179000160032003800be002801be00e00f5000e5
:1017a000e08f5800e00f5900e08f59000f00320021
:1017b00080c7b30080cf54000300320080c5b3005f
:1017c00080cf540009003a00780090008000450066
:1017d00002c3b300824878000000e80080004500a2
:1017e000894878000000e8007004980078009000b4
:1017f000000545006a049800894078006c003700b5
:1018000028619000c0c4b300804f510006003a0028
:101810001101780068005100800878005001be0076
:101820004000be000500370011017800640051003f
:10183000800878001000be00fb070700009cbe0077
:101840000294be00b8009000780090000100e00013
:1018500003003d0080004500d2c2b3000a003700fb
:10186000881090000118a30003003200800045009a
:10187000b2c2b300040037000108a3000500320023
:101880008000450002c2b300824878000000e800f2
:101890007004980078009000000545006a049800e4
:1018a0008900fb0008007800530007004e00370055
:1018b00028619000c3c6b3001180e900834f510036
:1018c000240032000a003c00e4c15100834f510063
:1018d0002700320083c1e800834f51001500320019
:1018e00020c6b300804f510020003a000a003700a4
:1018f00043c7b300834f51001d003200e6c14100d1
:10190000834f51001300320010c7b300804f5100c5
:1019100016003a00060037001180e90080087800c0
:1019200010007800485c9000084878002e003700ce
:101930001180e9008008780010007800680a9000a3
:10194000cfa2de00612bb9000498be000690be0055
:1019500025003700800878001000780068099000a2
:10196000cf91de000288be001f0037001180e90021
:101970008008780010007800680c90000808780053
:10198000190037001181e9008208780012027800fe
:10199000cfa2de00612bb900049cbe000694be00fd
:1019a000f8009000010545006a0498008040780026
:1019b00008007800dd0407000b0037007800900075
:1019c000000545000500370078009000000545003f
:1019d0000904e00001003a0059c2b300094d780043
:1019e0000000e800700498000000eb004f0578004c
:1019f0004f04be00000006004f04b000889fbe00e8
:101a00008a9fbe008c9fbe008e1f78000007780062
:101a100081f79f003e04be002e05be005e089000c8
:101a20000000e00002003d0060002000500f980020
:101a30008e00780000fb2f000f004000130307000a
:101a4000e20f50000a003a0030002000100f98000a
:101a5000b1c9b3000ff0970081404000004b210056
:101a6000e1cf50000d003e00c04a21000b003700be
:101a70000000e0000f00340030002000100f98003c
:101a8000b1c9b3000ff1970081404100804b2100a4
:101a9000e1cf500001003e00404b2100ee009000dd
:101aa000b0487800b0687800104078009040980006
:101ab000130137000000e00005003a0002fb2f0090
:101ac0000f014100001978008001eb000701370089
:101ad0006022b8006033b8000800be000a01be00f2
:101ae000990607000000e00001003d000bf0a20095
:101af000705927008f9897000088b900026a280063
:101b000013002000f4060700640650008c9f9f001d
:101b100016003b0063061600c0ff2f00000666009b
:101b20008c01ea00839f9f008006eb000800be0046
:101b30000a01be000a0037000c08a30006003200ac
:101b4000c36add00c44b2100048242005403be007e
:101b50004402be00820707000c86d1008d06e80013
:101b60000c00e000f4ff3c001b0037000c00e0001c
:101b70001b003200c0ff2f00000666008c9f9f00f4
:101b80006000b8000200200003ff23008006eb0085
:101b90000a0037000c08a30006003200c36add000b
:101ba000c44b2100048242005403be004402be0024
:101bb0006b0707000c86d1008d06e8000c00e000e2
:101bc000f4ff3c000002be000203be000800be009d
:101bd0000a01be00660607000004be000205be0042
:101be000de08900060c6b3000ff29700804f5200ed
:101bf000040032006000200062c4b300824f520033
:101c000002003a008f9a97006a80420081004000eb
:101c1000f1b79f0001037800f30f53000200340076
:101c200037012000f7b79f0000c3b300a0779f00e3
:101c300030fb2f0000804700e0b79f000e017800c6
:101c400092b79f004a0037000800be000a01be009c
:101c5000140707000006be00ffb19700e88151009d
:101c6000f3b79f004240a9000c0034003907070079
:101c70000002be000203be000800be000a01be0052
:101c8000ac0707006022b80046782d0077192400c1
:101c9000330707000004be000205be000007eb008a
:101ca000810020000802be000a03be00a4b79f0006
:101cb000b5b79f00c6b79f00d7b79f000104780053
:101cc0000c01be000d003700a4002000050020001c
:101cd000a0fd2f000f0040003e0207005fa8970004
:101ce000efa897007fa997008fb197000e055500c8
:101cf00005c3b300054d41000001be006fb397005e
:101d0000680543008005eb000e005500e00f510010
:101d1000e08f590007003c00880078002fb497003e
:101d2000bfb497004fb59700dfb597000001eb00f7
:101d3000080037000804e9000e07e800e10f44003e
:101d4000e1ff3a00f4ff37000202520003c3b30080
:101d5000034a78006102b800820152000201e800e3
:101d600002835000f8ff3b00e8814100e3b79f0089
:101d7000ffb397000700e000070034006022b800be
:101d80006033b8000800be000a01be00f30507007a
:101d90000000e000acff3c001fb7970038fb2f00ad
:101da0000f0444006fb09700080450000f9997008b
:101db000e7004100819f9f000000eb008081500000
:101dc0008002540036fb2f000f0343008003eb001a
:101dd00006034000e0834b00060178000000e800a5
:101de00004c3b300964f1200f4ff320006027800dd
:101df000839f9f005e08900061c6b3000ff39700b9
:101e0000814f53000300320061c4b300814f53007f
:101e100002003a008301e8000a00370013002000a6
:101e200051c6b3008ff3970081cf530005003200f5
:101e30008741780053c4b2008381fb008301e9002d
:101e4000cf19de0080814100858f510001003400f0
:101e5000850178000300e0002400350001c3b300d1
:101e6000858f510006003d0083024200e9c040001a
:101e700040c3b300954f100001003c00e9c0500082
:101e8000030078008002eb000100370006007800b4
:101e90000003e900030642000c06e9008006eb009f
:101ea000612cb800080556009a4378008502e800c6
:101eb00081cf5300f5ff320093c3b30083cf5000ae
:101ec00001003a00074de8000600e00006003d0072
:101ed0000401e9008001e8000f9897000000e80085
:101ee000809f9f0001003700800178000ff297006b
:101ef0008400fb000f9a97000e0078000600070090
:101f00004f0778004f06be004f05be004f04be00cd
:101f10004f04b100000006001200fa00889fbe00c6
:101f20008a9fbe008c9fbe000004780001457800a7
:101f30008205780083047800040678000900e00038
:101f400002003c0019002000cb58210060c6b300fd
:101f5000804f55000e00320060c4b300804f550022
:101f60000b00320070c6b300804f550003003200f2
:101f700070c4b300804f550089003a00e40f46005a
:101f80008700350058089000800f560084003d00ff
:101f90000c06e80060c6b300804f55001000320008
:101fa00060c4b300804f55000d003200081090004f
:101fb0000038a30004003a0058089000808f5400b5
:101fc00001003d00590c9800580890000c0050008a
:101fd000500c980002003b000000eb00500c9800f1
:101fe00098089000680090000c00e00028003c0079
:101ff0000100400002c3b300024878008100e800fd
:10200000110c9800580890000000e00003003c000c
:10201000081090000038a30006003200680090000d
:1020200001004000e2c2b300024878008100e800ed
:10203000110c9800580890008c00ea00810f5000a5
:1020400001003d000006ea008c00ea00210c980027
:10205000000646005c0c9800890f56000100340011
:10206000090678003c0c980018089000e8009000e1
:10207000008040006161b9008b007800affb070071
:10208000580890000c0650004c0c98009c0037003b
:102090008c8f540019003d00010040006149b900d7
:1020a0008b007800a5fb0700180890000080440012
:1020b000100c980089045600290c9800d80890004c
:1020c0000100e00003003c00881090000138a300ec
:1020d00007003200e800900000804000e1c2b30039
:1020e00001487800380890000000e800300c9800a3
:1020f00058089000400c9800810037006162b900d8
:10210000010040000401be008b00780084bf9f00e6
:1021100095bf9f0089fb070018089000000046004b
:10212000100c98008c845400d80890000fba9700c7
:102130000100e00003003c00881090000138a3007b
:1021400006003200e800900080804000e2c2b30048
:10215000824878000000e800100c980058089000b1
:10216000808f54000100340080047800180890002b
:10217000e8009000008040006149b900848045007b
:102180006efb07001808900009004000100c980032
:10219000580e900089045600290c9800580037000a
:1021a00018089000e8009000808040009b4878006c
:1021b0000000e800100c9800d80890000100e00032
:1021c00003003c00881090000138a3000600320094
:1021d000e800900080804000e2c2b30082487800ae
:1021e0000000e800100c9800580890000000e00083
:1021f000100034008904e900808f5400010034008d
:102200008004780018089000e800900000804000ea
:102210006149b9008b00e80048fb070018089000ee
:1022200009004000100c98005808900089045000e4
:10223000290c980018089000e800900000804000e9
:102240000a5878008006e8000c00e0000400350021
:10225000b1c2b300014878008d0578000400370052
:10226000d1c2b300014878008d0578000c06ea0061
:102270000005eb000b003700a20020008c00780066
:1022800074805700350007006fb09700ffb09700cb
:10229000814178007e01550083777900000678003f
:1022a0000a05e8000c00e000f3ff3c000a00e00033
:1022b00003003a008d05780000c3b300805d78000c
:1022c0000000eb00060037000a05e900fe0155009a
:1022d0006fc1790003c3b300834841000000e800e8
:1022e000808045000a00e000f7ff3c0018089000dd
:1022f000680190000000410080805000310c98007f
:102300000810900074006000f00f50000e003a00ba
:10231000980890007800900000804000a808900085
:1023200001004000b808900001004000c80890007b
:1023300001004000f8089000810f500002003d00ad
:1023400000805000000c98004f06be004f05be00f4
:102350004f04be000080fa000000060080027800f2
:1023600001037800110009000203d8008001780001
:10237000830a78008299b900820053009102980084
:102380000500780000000600e0252100b2003700bb
:10239000881f7800e85821001804e00003003a0084
:1023a000f9ff070020c0b300004c78004f0478000c
:1023b00000000600889fbe00000478000800780036
:1023c0004900070080047800000420001800600025
:1023d0000200320028009000d80007000000eb0047
:1023e00020049800384090000004e000050035000b
:1023f0000000fb00b6f807000000e000010032001a
:102400008084eb00181090000000e000080032000b
:10241000b8f807000000e000010032008084eb0003
:1024200018109000c50007000000eb001014980081
:1024300000082000180060000f003200a1492100b0
:102440000000eb00d10f140005003a00000040002e
:10245000c1492100008040000008eb000300370064
:102460000000e800e80f5000f6ff3a00080078008e
:10247000b20007000e003700000c780000c0eb002f
:1024800030449800600220000800400020049800ba
:102490004004980050049800400c98006004980094
:1024a000500c98007004980076004400000c9800ce
:1024b000090078004f04be0000000600889fbe009f
:1024c000c84a2100f0045400480078000000e000f1
:1024d00001003200b7ff0700890f5400faff3a00ed
:1024e0004f04be0000000600889fbe008a1f7800cf
:1024f000000478000800e0000d003a00a84921001f
:10250000700544008004eb00580078000000e000f3
:1025100004003200f4ff07000000e00001003d006d
:102520008084eb008a0f5400f7ff3a002500370043
:1025300000002200180060008004eb00210032003f
:10254000a80490000f0037000901510038409000a6
:102550000000fb008900780090f807000000e00010
:1025600007003c0028009000400498006004980098
:10257000500c98001890a0008084eb0011003700e8
:102580008084440048019000828f5400eeff39009f
:1025900028009000400498009800780002c02000b5
:1025a0000281600001003a003800900001e8a300b9
:1025b000020032006004980001003700500c9800bf
:1025c0008004eb00090078004f0578004f04be003e
:1025d00000000600881f78008a9fbe008c9fbe0006
:1025e000000478000205be000406be000401be001f
:1025f0000a00be0038040700008cbe000c01be00bb
:10260000610507000005550081855d002a049800da
:102610003b049800080078004f06be004f05be003e
:102620004f04780000000600020037000304e000b9
:10263000060032000001780002007800b041780006
:1026400081cf5100f9ff3a00010037000001eb0093
:102650000200780000000600010020000100e000f8
:1026600009003200010080000100e0000600320095
:102670008100e900010088008180400002008000a4
:10268000810041008008780000000600889fbe009d
:1026900000047800e68440001900d0004500de0008
:1026a000f27f2000820f500010003a00000ceb0077
:1026b000990478006f816400200020001b003a001c
:1026c000210190000200e00018003a001101900082
:1026d0000200e00015003a00100020001100e000a8
:1026e0001200320020002000100037000000e0003f
:1026f00004003a0001007800340107000000e00007
:1027000008003c00f20028001901610001fe2300ce
:10271000810c710021c02f00010c40000080eb00f3
:1027200002003700000ceb000000eb004f04be007d
:102730000000060001087800000006000000e0002c
:10274000320032004002be00e50f5200e08f5a0016
:102750002e0036000408a3002c003a0041ac800093
:102760000100e00002003200810f5000040031003f
:102770002100980040ac88001700370082007800e4
:10278000210190000200e00002003200800f5100a1
:10279000faff39001103be0086814000830f50000c
:1027a0001a003900808f510004003a008418430059
:1027b00085904b0001007800070037000200e00020
:1027c0000300320004024000840f51000f00390062
:1027d00022009800a0009800a00090000100e000f6
:1027e0000a00320010014000828f500007003a00ba
:1027f000625821000009eb001001be0031184100b1
:1028000021904900a10090002100980000000600de
:10281000ea874700889fbe008a9fbe008c9fbe004b
:102820008e1f7800000678000204be000405be007a
:10283000010778000400be00d3040700d0b79f0052
:10284000e1b79f00e00f5000e08f580052003200c7
:10285000e00f5400e08f5c0050003200fcb79f0096
:102860000006be00ce0090006e009000808f5000e9
:10287000040039000e007800d4f907000000e000e1
:1028800033003500004020001e0060000c003200c4
:102890000c01be00a10020007fb09700b900070026
:1028a000000278000400e00008003200ffb1970049
:1028b000618511000a054200cfd5de000400370013
:1028c0000c05be000002eb00010037000c05be0045
:1028d0004e0090006e01900000015100cf91de008b
:1028e0008a0f51008b8f5900020031000205be0093
:1028f0000002eb000a01be00ffb0970084bf9f00fa
:102900008ef907000a0656008b865e004e00900086
:102910000a004000400798000fba97000400e0004a
:10292000040032000e007800effe07000000e00017
:1029300007003a00e00f5600e08f5e00040032000e
:102940007fb097000a004000f0b79f00c5ff370036
:10295000008020001e006000020032000e0078009f
:10296000e1fe070000c020001e00600002003200ef
:10297000ce009000610798005fb19700efb197001b
:102980000c0051008d8059000801be006b04070047
:102990000005be00010037006055b8000a00be0007
:1029a0004f0778004f06be004f05be004f04be0023
:1029b000af00b10000000600889fbe008a9fbe00e5
:1029c0000004be0031ac80000100e00002003200d3
:1029d000010078000f00370041ac800080582100d2
:1029e00005003700b10f5400a18f5c002b003600aa
:1029f00064804000a10090000100e000f9ff3a006f
:102a000012003700b20f5400a28f5c002300360082
:102a100064004100100178000200e000f9ff3a0074
:102a20001101780041ac800080582100050037007a
:102a3000b10f5400a18f5c00180036006480400084
:102a4000a1009000828f5000f9ff3a001aac80007c
:102a50002bac8000880f5500898f5d00010031008c
:102a60000805be000a00be00a40007000000e00048
:102a700006003a00880f5500898f5d00060032007d
:102a80008b05d1000a85d300f2ff37000a98be00fb
:102a90002aff0700cbff37000000eb004f05be0008
:102aa0004f04be0000000600889fbe000002be006a
:102ab00065004000e0804800000378000600a100a7
:102ac00081017800060178000204be008000eb005e
:102ad000840f5400858f5c0027003600e50f5400fa
:102ae000e08f5c0002003e0068002000090020002a
:102af0000800be00b0ff07008000eb000000e0000f
:102b00001d00320090007800a4ff2f00f5ff2f0079
:102b100031014200a1814a00880f5100898f59007c
:102b200003003100a102900005087800080037007a
:102b30000881400002087800a1019000230198005c
:102b4000100178003119140021911c008888be0002
:102b5000100178000000eb000200e00004003200e9
:102b6000a20190000300e000010032006400410077
:102b700030ac8800e4804000010078004f04be00c3
:102b8000000006000202be008001eb0005003700d5
:102b90008301e80092cf10000a0032006102520067
:102ba000e0825a006103b80006834100e0834b00d5
:102bb00006017800e00f5200e08f5a00f4ff3a005f
:102bc000000005000600780000000600e600400056
:102bd0001101780005002800850261006f01610085
:102be0008208780002003200120020001100370035
:102bf000a0019000120020000300e0000d003a0048
:102c0000900190000300e0000a003a001000e0008c
:102c100008003a0036003700640340009608780048
:102c200080017800530b7800900978000408780040
:102c300070015100110278000400e000f6ff32003c
:102c40001300370064024000140378004f33de00a5
:102c5000838141008308730080017800d3037800ea
:102c6000cf3bde001403780006034300068a73009e
:102c70001302780004024200100378004f33de0094
:102c80008609720090017800038841000201e90082
:102c900091017800ef8f5100eaff360010003700f5
:102ca00080017800530378004f33dd001002d1001b
:102cb000040873006402400094037800cf3bdd00f9
:102cc0001303d10086897300110378004f33dd00b0
:102cd0009401d100030a73009108d1000201e800b9
:102ce00091017800ff8f5100edff3e00ef886100f9
:102cf0009188720002007800000006000001be000a
:102d00008000eb000200e0000600340002007800c2
:102d100081f6070080007800e18f400001003a0052
:102d20008000eb000100780000000600fc874700ef
:102d3000889fbe008a9fbe008c9fbe008e1f7800b9
:102d40000006780080c5b30080cf50000a00320032
:102d50007740400080cf50000a00320069404000b8
:102d600080cf50000b0032005051210080bf9f00e7
:102d7000ae0020000a0037004250210082bf9f00b1
:102d8000060037005351210083bf9f008e002000b2
:102d9000030037005451210084bf9f000e01200022
:102da0003c02be002c03be000605be000404be00ab
:102db00040c6b30080cf50000300320065404000a1
:102dc00080cf50000b003a00e00f5200e08f5a0015
:102dd000e00f5b00e08f5b0006003d006000b80084
:102de0006011b8000404500085845800060559009d
:102df00087855900e80f570004003200400020008a
:102e0000f00f570046003a00010037003000200064
:102e1000e00f5400e08f5c00e00f5d00e08f5d008c
:102e200004003a00dc0890008d0120000100e00061
:102e30000d0032000e01e900cf91de000802be0055
:102e4000820064000382620084027800010278003c
:102e50000401be008fba970002814200124178003f
:102e6000f2ef9f007d012000800078008100e900e2
:102e7000050033008b05d1000a85d3008984d30077
:102e80000884d300f9ff3700089ebe000a96be00f2
:102e9000190037008d06e9000e01e900cf91de0030
:102ea0000404be0082006200038464008804780089
:102eb000010478000801be008fb89700028140002d
:102ec0009240780083fd2f008d81410081f77900c9
:102ed000000178000201e900050033008783d1007a
:102ee0000683d3008582d3000482d300f9ff370024
:102ef000049ebe000696be003c02be002c03be002f
:102f0000e00f5200e08f5a00e00f5b00e08f5b00a3
:102f1000910034000d00e000deff3c008e00370021
:102f20002c60900081c6b300814f50000b0032002e
:102f300006003c000004e00008003200e6c050003b
:102f4000814f500052003a0004003700c1c6b30060
:102f5000814f50004e003a00230037000800e00087
:102f600004003a005c0890008d0120000000e000a1
:102f700007003200110009000e84d8008fb99700b5
:102f80000180410010407800f0ef9f007d0120009b
:102f9000110009000e84d8000b0037001100090051
:102fa0000e04d8008d06e9008e81b9000204540099
:102fb0008fb89700088440009841780082fd2f0068
:102fc0000d01410083777900000478000800e000db
:102fd000020032000d00e000f0ff3c00cfc4de0034
:102fe000614db90027003700e00f5400e08f5c000e
:102ff00004003a005c0890008d0120000000e00011
:10300000080032006171b9000800be00db02070051
:103010000fba97008000420091407800f1ef9f00c6
:103020007d0120006171b9000800be00c3020700e5
:103030000c0037006171b9000800be00a60107004e
:103040008d06e90080f1b900020454008fba9700a0
:10305000088442009841780082fd2f000d01410054
:10306000837779000004be00e00f5000e08f580025
:10307000020032000d00e000eeff3c004fcdde000c
:103080008a057800089ebe000a96be00320037000e
:10309000e00f5400e08f5c00e00f5d00e08f5d000a
:1030a00004003a005c0890008d0120000000e00060
:1030b0000a0032006172b900612bb9000800be003d
:1030c0000a01be00560307000fba970080004200b5
:1030d00091407800f1ef9f007d0120006172b900fe
:1030e000612bb9000800be000a01be0045030700bd
:1030f0000e0037006172b900612bb9000800be00f4
:103100000a01be004a0307008d06e90080f2b900fb
:10311000040454008fba9700088442009842780053
:1031200084fd2f000d02420085777a00009ebe00cc
:103130000296be003c04be002c05be00e00f540009
:10314000e08f5c00e00f5d00e08f5d000200340066
:103150000d00e000e7ff3c00e80f570010003a00c8
:103160000c1090000038a3000d003200f78f5600bd
:1031700006003e0080fd2f000d004000ef4078006b
:1031800000c3b30080cf50000500320002c3b3007b
:1031900071fd2f008d8040008d06e90082f77800d8
:1031a000f8801600110e98006c0090006109b900bb
:1031b00084fd2f000f0242008d0042005ff70700e0
:1031c0001c089000dc089000810f500006003d00b4
:1031d00000805000000e98000c1090000040a100ec
:1031e000001698000f0037000100e0000d003d00c0
:1031f0008c109000f4806000f08f500009003a00bd
:103200007c099000fc009000810051000c099000a6
:1032100082805000008050004240a900010034002c
:10322000000e98004f0778004f06be004f05be0005
:103230004f04be00cf01b100000006000400fa00f8
:10324000889fbe008a9fbe008c1f78000004780013
:1032500001067800f80d90007800900080855500f8
:10326000080890008085550018089000808555005a
:10327000280890008085550038089000808555000a
:1032800048089000808555000002220090bf9f00f2
:1032900000032300a0bf9f00081090000028a30097
:1032a00015003a000b00e000130034000b05780015
:1032b0008a047800e20f5500010036002900200042
:1032c0006149b90048029000ee8057005800900014
:1032d00004000100500498000000e0008f0032005c
:1032e0006808900009004000600c9800090555002e
:1032f0004240a900eeff3c00780090000000e00092
:103300000d0034006101b900480290008c00780083
:103310005800900004000100500498008080eb00e9
:103320000000e0007e003200e80890007800900085
:1033300000804000600c9800880c90000900e000bc
:103340001100340009057800e28f540001003600b6
:103350002a0020006151b90048029000ec8057001b
:103360005800900004000100500498000000e000a4
:103370006a003200680890000a004000600c980063
:103380008a845400edff3700180890000000e00028
:103390000d0034006101b90048029000e80090007f
:1033a0005800900004000100500498008080eb0059
:1033b0000000e0005a003200e80890001808900071
:1033c00000804000600c9800a80c90000900e0000c
:1033d0001100340009057800e28f54000100360026
:1033e0002a0020006151b90048029000ec8057008b
:1033f0005800900004000100500498000000e00014
:1034000046003200680890000a004000600c9800f6
:103410008a845400edff3700380890000000e00077
:103420000f0034006101b90018089000e800900016
:103430008080400048029000580090000400010085
:10344000500498008080eb000000e000340032005f
:10345000e80890003808900000804000600c980058
:10346000c80c90000900e000110034000905780044
:10347000e28f5400010036002a0020006151b9009b
:1034800048029000ec8057005800900004000100b2
:10349000500498000000e00020003200680890000e
:1034a0000a004000600c98008a845400edff370049
:1034b000081090008000eb000028a30018003200e4
:1034c0000b00e000160034008b047800090578003a
:1034d000e28f5400010036002a0020006151b9003b
:1034e00048029000ee805700580090000400010050
:1034f000500498000000e0000800320068089000c6
:103500000a004000600c98008a8454004240a900e0
:10351000eeff3c008000eb00010037008080eb00f4
:10352000010078004f0678004f05be004f04be0032
:103530000080fa000000060000c0da00000006006b
:1035400000c0da00000006008f1fd100130307003f
:103550008f87e9000000e00000000600809feb007c
:103560000e0307008f87e9000000e000000006005e
:103570002800fa00889fbe008a9fbe008c9fbe0074
:1035800003866b008f0007006400e10044003200f6
:103590006408e1004a0032006100e10046003200a8
:1035a0006108e10049003200ec0647006000b80005
:1035b0003d02be003d03be00f48657006011b80016
:1035c0003d04be003d05be007d0320000b0037001a
:1035d0000000a0008d06e900130032000402420042
:1035e00085824a0006034b0087834b0000004000a1
:1035f000818048000201490083814900080252008d
:1036000089825a000a035b008b835b00f0ff3b005a
:103610000802420089824a000a034b008b834b0058
:103620008d06e900edff3a00848272008682720006
:10363000f707b200878272000100320015002000f7
:103640001e0490003e0b900006035400e63fb000bd
:103650000368a300070032000000a7000500a000d7
:103660008301d1000281d3008180d3000080d30088
:103670000603e8008301d1000281d3008180d300da
:103680000080d3000002eb000482d200210007007a
:1036900003f0a1000cf0a70003f0a0005d003700cc
:1036a000640247006408e100570032003400be00a5
:1036b0003401be00f6ff37006108e100520032001d
:1036c0006011b8006000b800f1ff370003ff270069
:1036d00002002000fbff3700839f68000100e0002c
:1036e00002003d0060001000e08018000300e000d0
:1036f00002003d0060011100e08119000f01070088
:103700004f00e00002003b0060001000e080180065
:103710000000060018002000570020000804530095
:103720000d003d000600200097fc2f000740e1003f
:103730001e00340084827200610260008301d100a7
:103740000281d3008180d3000080d3000804e80008
:10375000f8ff3a004700200061046000050474008f
:10376000040464000d00320061004000e080480065
:1037700060014900e081490003b8a500070032005c
:103780000603e8006538e10004003a008301d10037
:103790000281d3008180d3000080d300f87f200015
:1037a0000830e10003003500080378006000b8002d
:1037b0006011b8004433dd00f300b20083017300f0
:1037c00000000600680447000294be000094be009a
:1037d000fc0447008694be008494be000900780073
:1037e000b702070008007800b502070099007800ca
:1037f000814f70000b003b000800be0090020700e4
:103800004f00b10003003700f3ff2700f2ff2f0045
:103810006110b9004f06be004f05be004f04be0048
:103820000080fa00000006008103780030f50700f0
:103830000001be006000b8000478a30013003a0045
:103840006220e10015003e000d0039008301d10027
:103850000281d3008180d3008301d1000281d30093
:103860008180d3008301d1000281d3008180d30005
:103870000538b000c42add00f300b2008381720075
:1038800007f0a70003f0a00000000600f3ff2700e8
:10389000f2ff2f006110b900fbff370003ff270084
:1038a000f7ff37001400fa00889fbe008a9fbe0011
:1038b0008c9fbe000004be000205be0068004700e9
:1038c0000a90be000890be007d0207000070a700ad
:1038d0000bf0a100304320009e0290008082520035
:1038e000b0fe2f000028e10011003d00b0fc2f00c9
:1038f0000028e100150034001e0990008e08900099
:103900007e0090000501b0000201d1008180d3004b
:103910000080d3008502e800fbff3a000b00e000c6
:10392000bcff3b0060001000e0801800b9ff3700ca
:10393000f0ff2f00f1ff27000b00e000b5ff3b0078
:103940000100280000002000b2ff37006000b8002e
:10395000b0ff37004f89de00820178007f02370018
:103960002800fa00889fbe008a9fbe008c9fbe0080
:1039700003866b0093ff07000028a30064003a0051
:103980000128a30067003a000008a30062003a0083
:103990000108a30065003a001e009000be089000d8
:1039a00081064000ed3fb100f4805700ee01900029
:1039b000111ab8008e099000311bb8009e099000c2
:1039c000311cb800511db800f485570046000700af
:1039d000fe0190003a0007008b85e8003e000700da
:1039e0008e09900040000700ee01900034000700af
:1039f0008b85e800380007008e0990004000070022
:103a00009e0990001b18b800890440000a854800f0
:103a1000fe019000340007008b85e80038000700a5
:103a2000ee019000300007008e0990001b18b800ce
:103a3000890440000a8548000a98a30008003a005b
:103a40000402420085824a0006034b0087834b0034
:103a500008044c0089844c000a054d008d06e900dd
:103a600084827200850273004c3add008502720088
:103a70000100320015002000443ade001400b200bc
:103a80004538de00cb45dd000b007000c540de0090
:103a9000cb4ddd008b8070004549de00cb55dd004d
:103aa0000b017100c551de000d03780019ff0700fe
:103ab00003f0a1000cf0a70003f0a00055ff3700b1
:103ac0001b18b8008502400006834800e0834b00c5
:103ad00060044c00070037001b18b80006034000c4
:103ae00087834800faff37001b18b800870340009f
:103af00008844800e0844c0060054d00000006008a
:103b00001b18b8000804400089844800faff3700f9
:103b10000108a3003cff3a005800be005801be0057
:103b2000e3ff37000008a30037ff3a0009047800dc
:103b3000f9ff370007f0a2001b0137006022b80030
:103b4000060220000000d0008180d2000482d20052
:103b50008582d2000000a0000202520083825a0037
:103b6000030031000202420083824a000000a100eb
:103b70000603e900f3ff3a0000000600efff07002c
:103b80000400be0000000600020ab900001bb900d4
:103b90000200b800810042008100430000000600de
:103ba000889fbe008a9fbe0030044200b0844a0055
:103bb00030054b0090854b006000b1000898be00b6
:103bc0000a90be000440e10005c8e10006d0e10013
:103bd00007d8e10002003100680040001008e8004a
:103be0004f05be004f04be0000000600889fbe00c7
:103bf0008a9fbe003004be002005be000418540099
:103c000005985c0006185d0007985d001100200013
:103c10000440e10005c8e10006d0e10007d8e1005a
:103c2000010039008000eb00108810004f05be0035
:103c30004f04be00000006001200fa00889fbe007c
:103c40008a9fbe008c9fbe00e0b79f00f1b79f0027
:103c500082bf9f0093bf9f000605be000404be0004
:103c60000000eb00d0b79f00c0b79f00b0b79f0027
:103c7000a0b79f0090b79f000006eb005fb19700d0
:103c8000cfb09700820141003fb097000200e000f2
:103c900004003d00370007007e805700c0ff07008a
:103ca00003003700330007007e805700cfff070076
:103cb000dfb697000d00e0000c0035006fb29700f2
:103cc000ffb297000fbb97009fbb9700100020002a
:103cd000010020006011b8000002720081827200b1
:103ce00002037300838373001b0007000c06e800c7
:103cf00001042000810f5600e0ff3a000d00e000b3
:103d000004003d000802be000a03be007e8057008a
:103d1000a3ff07005fa897000000e00005003a003d
:103d20001fb29700afb297003fb39700cfb3970091
:103d3000090007006fb09700ffb097000fb9970018
:103d40009fb997004f06be004f05be004f04be004e
:103d50000080fa00000006000100070000000600d5
:103d6000a4b79f00b5b79f00c6b79f00d7b79f0005
:103d7000000006004f09de0082817100b3b79f008a
:103d80004f01de008180400082807000a1b79f005b
:103d90008fb097004f09de00000040000200700065
:103da00090b79f007fa897004f01de008180400000
:103db0008280700081b79f000d0007004f3ade003f
:103dc0000000400004007000f0af9f0008000700f2
:103dd0000402420085824a0006034b0087834b00a1
:103de000dfff07000802be000a03be000000060055
:103df0002fb29700bfb297004fb39700dfb3970081
:103e000000000600881f780018002000881f780036
:103e100089ff07008f87e9004f0478000000060043
:103e2000801feb0084ff07008f87e9000000060079
:103e3000889fbe008a9fbe00e00f5000e08f5800b0
:103e4000e00f5900e08f59000c003d006044b800bd
:103e50006055b8000000540081805c0002015d00e4
:103e600083815d00180020001500070008003d0058
:103e7000180007000004eb00050037000004eb0009
:103e80000f00070002003d0012000700180020008c
:103e9000dcff07000800e000060032006022b800e6
:103ea0006033b8000000520081805a0002015b00bc
:103eb00083815b004f05be004f04be00000006007a
:103ec000e00f5200e08f5a00e00f5b00e08f5b00d4
:103ed000000006006044b8006055b80004025400b9
:103ee00085825c0006035d0087835d00000006009c
:103ef000889fbe008a9fbe008c1f7800e00f500094
:103f0000e08f5800e00f5900e08f59000d003d0090
:103f10006044b8006055b8000000540081805c0027
:103f200002015d0083815d001c0020000820e1008b
:103f300009a8e1000ab0e1000bb8e1000d003d0066
:103f4000080037000006eb00e00f5200e08f5a0037
:103f5000e00f5b00e08f5b0006003d006044b800ae
:103f60006055b8000402540085825c0006035d00c1
:103f700087835d00aaff07000c00e0000600320006
:103f80006022b8006033b8000000520081805a00ff
:103f900002015b0083815b004f0678004f05be0085
:103fa0004f04be00000006002800fa00889fbe00f3
:103fb0008a9fbe008c9fbe00070678008786690036
:103fc0000c003b00030478008704780008f0a1008f
:103fd00009f0a100840f5000858f5800860f59000a
:103fe000890f5c00030033000cf0a20001003a00ce
:103ff0000cf0a100f3fd07006400e1005f00320057
:10400000780147006408e100610032006c0147005c
:10401000748557003200be001201be003a04be0093
:104020001a05be001e039000be0a900085035300cf
:1040300006003d000004fd008104fd000205fd00b6
:104040008305fd008703ea00050378000df8a3004f
:104050000400320060041400e0841c0060051d00b0
:10406000e0851d006022b8007d0320000d38e100ce
:104070008006eb000b0039004433dd00f300b20092
:104080008301730039003700848272000d027800ca
:10409000e10664008b85d1000a85d3008984d300b2
:1040a0000884d3008703e900f7ff3b0008004000c5
:1040b000898048000a0149008b81490004003b00c7
:1040c00060001000e080180060011900e081190014
:1040d0000358a300090032008d82720084827200ae
:1040e000610260008301d1000281d3008180d3008e
:1040f0000080d3000603e8001b0037000348a3003c
:1041000017003a000600e000170034000603e9003b
:104110000d00a30000004800818048000201490012
:10412000838149000348a3000f003a000600e00025
:10413000090034000603e9000000400081804800c7
:10414000020149008381490001003a000003eb00ad
:104150000348a300f5ff32006022b80002003700d8
:1041600084827200618266006afd070003f0a1008c
:104170000cf0a70003f0a000a6fd37006401470083
:104180006408e10002003a000df8a3009efd3a0029
:104190003200be001201be009efd3700889fbe00a7
:1041a0008a9fbe008c9fbe000404be000605be00b0
:1041b000809fbe00829fbe002f000700040678008b
:1041c0000800be000a01be002b000700840678002c
:1041d0004f03be004f02be008d4f76007fb09700a8
:1041e00013003300f0ff2f008b8f6b0006003b00a5
:1041f0000d0666000c00a7000a00370007f0a600b5
:10420000100020000a003700880f5200898f5a00e2
:104210008a0f5b008b8f5b000300390010002000c9
:1042200001003e000000200007f0a7000000ea00a7
:104230004f06be004f05be004f04be000000060042
:10424000e48240001078a3000700320064024000be
:104250001178a3003400be001401be000400320037
:104260000330a700000006003500be001501be00a7
:104270000330a0000000060005ff27000582610052
:10428000070032000428e10001003200240005008c
:104290000600070001003a0044000500040805007c
:1042a00002000700f9ff3a00140005006f82610068
:1042b0008102700085027100850272000000060014
:1042c000800078005002be005003be004439de007a
:1042d000f700b200f37f2000030161000900320003
:1042e0000218e10016003a00850172008301730094
:1042f000838173000008200015003a004000200070
:1043000013003700850172008301730083817300fd
:1043100005003a0004a8be0006a8be001000200058
:104320000b0037000201e9000402420085824a00c6
:1043300006034b0087834b000748a300f9ff3200b8
:104340000740a00004a8be0006a8be002000200070
:10435000800098009200980000000600881f7800f6
:10436000030478000300e00007003d006000100037
:10437000e080180060011900e081190002003b0094
:1043800001f02d00030037000400070008f0a7002b
:1043900003f0a0004f04780000000600889fbe00d4
:1043a0000082700004027100048271002400320057
:1043b00036432000c50020008383cf000a00390067
:1043c0000541b1008283cf00070039000541b100eb
:1043d0008183cf00040039000541b1008083cf0004
:1043e000010039000541b10085c353006022b800c7
:1043f000120032000a003b008482720061026000f9
:104400008301d1000281d3008180d3000080d300da
:104410000603e8008743e800f7ff3a00070037008b
:10442000000040008180480002014900838149006a
:104430000603e9008743e900f9ff3a00b5fc0700ed
:084440004f04be00000006005d
:020000040000fa
:10444800256c00006c750000002500002e3200006d
:1044580066000000000000000000000000000000ee
:10446800005f0000000000000003000000030000df
:10447800001400003e1400003e140000242a00002e
:104488007f2a000012430000330800006661000024
:1044980036490000552200005000000005030000c6
:1044a80000000000001c0000224100000000000085
:1044b800412200001c000000140800003e08000013
:1044c80014080000083e0000080800000050000022
:1044d800300000000008000008080000080800007c
:1044e80000600000600000000020000010080000cc
:1044f800040200003e510000494500003e0400004f
:10450800027f0000000000004261000051490000e5
:1045180046220000414900004936000018140000f6
:10452800127f0000102700004545000045390000b3
:104538003e490000494900003201000001710000b5
:1045480009070000364900004949000036260000e6
:1045580049490000493e00000036000036000000ce
:10456800000000005636000000000000081400009b
:10457800224100000014000014140000141400006c
:104588000041000022140000080200000151000050
:10459800090600003e410000595500005e7e0000fb
:1045a80009090000097e00007f4900004949000010
:1045b800363e000041410000412200007f410000da
:1045c800414100003e7f0000494900004941000088
:1045d8007f09000009090000013e00004141000078
:1045e800493a00007f080000080800007f0000002a
:1045f800417f0000410000003040000040400000c2
:104608003f7f000008140000224100007f400000a6
:1046180040400000407f0000020c0000027f0000c4
:104628007f020000040800007f3e000041410000b6
:10463800413e00007f09000009090000061e000035
:1046480021210000215e00007f0900000909000007
:1046580076260000494900004932000001010000a7
:104668007f010000013f000040400000403f000083
:104678001f200000402000001f7f000020100000c5
:10468800207f0000412200001c220000410700009a
:10469800087000000807000061510000494500004b
:1046a800430000007f4100000000000002040000f9
:1046b80008100000200400000201000002040000ad
:1046c800404000004040000040000000010200009f
:1046d800040000002054000054540000787f0000bb
:1046e80044440000443800003844000044440000ba
:1046f8004438000044440000447f0000385400005f
:104708005454000018040000047e00000505000051
:1047180008540000545400003c7f000008040000c6
:1047280004780000004400007d40000000200000e4
:10473800404400003d0000007f10000028440000b5
:1047480000000000417f0000400000007c040000e1
:1047580078040000787c0000080400000478000059
:104768003844000044440000387c00001414000061
:104778001408000008140000141400007c00000055
:104788007c08000004040000485400005454000051
:1047980020040000043f0000444400003c400000a6
:1047a800402000007c1c000020400000201c00006d
:1047b8003c400000304000003c440000281000004d
:1047c800284400000c500000505000003c440000f9
:1047d800645400004c44000000080000364100000a
:1047e80041000000007f000000000000414100007f
:1047f8003608000000020000010200000402000068
:10480800000000000000000000000000010300009c
:10481800070f00001f3f00007f00000080c000005d
:10482800e0f00000f8fc0000fe000000436f00000c
:10483800756e0000743a000020250000640a00002c
:10484800004d00006f69000073740000757200006d
:1048580065200000476f00006f64000000440000fe
:10486800727900002c200000776100007465000058
:1048780072200000706c0000616e0000740000007f
:10488800486100007070000079000000536100006a
:104898006400000043680000656300006b69000065
:1048a8006e670000207300006f6900006c00000054
:1048b8004c69000067680000746900006e670000ba
:1048c800204700006f6f0000640000004c69000082
:1048d80067680000746900006e67000020460000e9
:1048e80061690000720000004c6900006768000000
:1048f800746900006e670000205000006f6f0000b0
:1049080072000000430000004600000054650000eb
:104918006d7000003a200000252e0000326600006d
:104928002043000020090000202500002e3200004e
:0c49380066200000460a0000000000009d
:020000040000fa
:10494400004178008000eb0080c7b300a406070094
:1049540000000600e0cab300f9ff070050cdb30021
:10496400f7ff070000c8b300f5ff070080cab300d3
:10497400f3ff0700f0c3b300f1ff070030cdb3002d
:10498400efff07000040eb00edff070000c4b30099
:10499400ebff0700d0c8b300e9ff0700f0cab3007b
:1049a400e7ff070000c2b300e5ff07000040eb008b
:1049b400e3ff070010cab300e1ff070080ccb30097
:1049c400dfff0700a0cdb300ddff070020c1b30067
:1049d400dbff070010c8b300d9ff0700f0c8b3001d
:1049e400d7ff070090cdb300d5ff070010cfb30069
:1049f400d3ff0700b0cdb300d1ff070000c4b3005c
:104a0400cfff070040cab300cdff070060cab30060
:104a1400cbff0700f0cab300c9ff0700000006007f
:104a24008002780001027800f3072000838f52008f
:104a340032003e000400e00030003500f3032000a3
:104a4400830f52002d003c00e10f5100040032009e
:104a540010003900e20f510028003a001b00370013
:104a640082002000110009000202d8000001780031
:104a74004711dd0005004100420221000000410011
:104a8400e7006200120020008110dd0010c87000f1
:104a94001a00370082002000110009000202d80029
:104aa400000178004711dd000500410042022100a9
:104ab40000004100e7006200120020008110dd00c8
:104ac40081c0ea0010c860000c003700820020009a
:104ad400110009000202d800000178004711dd002e
:104ae400050041004202210000004100e70062008d
:104af400120020008110dd0010c8680000000600cc
:104b0400889fbe008a9fbe008c1f780010c2b3002d
:104b14008bff07000040eb0089ff0700f0c7b300dc
:104b240087ff070020c2b30085ff07000040eb00a9
:104b340083ff070070c0b30081ff07000085eb000e
:104b44004b0221000c0820000b064600f805070064
:104b54000602a8000602ab00feff3a000228a900e4
:104b640080c7b3000f06070000c4b3000d0607009a
:104b74000b0445008a0446005840780009060700e3
:104b8400890f5400fcff3a000642a8000642ab001d
:104b9400feff3a000228a9000a08b000f03f2000f6
:104ba400800f5500e9ff3a004f0678004f05be001c
:104bb4004f04be000000060040022100ff0309006c
:104bc4000058eb00000006000f02b000889fbe00f2
:104bd4008a9fbe008c9fbe008e1f7800a0b79f00e6
:104be400b1b79f00e2af9f0083047800e548b900a5
:104bf40080b79f00e749b900c2b79f000200e800f0
:104c0400f0af9f008040eb00a1e79f0092fd2f00d2
:104c14000281470082bf9f000406fb008900e80070
:104c24004248dd0000804000d0af9f007b00370089
:104c340021c5b300814f50000a003c000000fb0076
:104c4400e500b900e1182a000080400041fd2f0072
:104c54008180470004000900b05878005000b1007a
:104c640020003700f1c7b300814f50001800320014
:104c7400f1c9b30081404000f9cf50000a003e0062
:104c84000000fb00e500b90091182a0000804000f4
:104c940042fd2f00028147000400090030597800ca
:104ca4005000b1000f0037000001fb00e511b9000e
:104cb400e0182a000000410041fd2f0081804700d8
:104cc40004000900b05878005000b1000500370016
:104cd40042fd2f0002814700e0222a00040009005f
:104ce400305978002fb097000fb197008200400030
:104cf400f0072000808f500006003400bfb09700fa
:104d04007fa9970082804000b1b79f000000eb00ac
:104d1400a0b79f0041fd2f0081804700d1b79f00bd
:104d2400afb597000007eb002e0037005fb1970086
:104d34009280fb008088de000108a3001a00320084
:104d44000900e000180034008980b900bfb0970062
:104d540001004000f0b79f000e0578008046eb008c
:104d64000c0037000b0040000c0178008a0078002a
:104d74002bff07000844e8000880fb00808f5400e4
:104d8400f8ff3c008d46e8000d85fb008a8f540037
:104d9400050034007fb19700020545000e0078003d
:104da4000044eb00efff37004fe897000040e800b5
:104db400c0ef9f00804078000180fb004fb1970056
:104dc400800f5100d9ff3c00898545005fb09700f2
:104dd4000000e800d0b79f008fb89700810f500003
:104de400070032000e0078000041eb00c2ef9f0084
:104df4004fb197000200e000ccff3c00f2ff370007
:104e04002fe097000040e800a0e79f00afb09700b4
:104e14005fa9970082804000a1b79f00afe0970090
:104e24000180fb006fa9970000004100104078004a
:104e34000004e0007eff3a004f0778004f06be00f2
:104e44004f05be004f04be000f02b1000000060073
:104e5400ea874700889fbe008a9fbe008c9fbe00e1
:104e64008e1f78008085fb000287fb000b0757002c
:104e74000ef0a7000e07ea000186fb008382fb0008
:104e84008c82520005f0a7008502ea0085bf9f00ce
:104e940015002000f5b79f00804f5100020031003b
:104ea4000080eb00f0b79f0015002000e5b79f00dd
:104eb40081cf5100020031000080eb00e0b79f0079
:104ec4008fb89700810f57001e0035000e00e000d8
:104ed4003900350081824000d5b79f000e8552000d
:104ee4000e8050000000400080bf9f00ffb6970076
:104ef4000b8446008004eb008405fb000d00540085
:104f04000b0178008c007800c5fe07000a00e00061
:104f140003003d005fb09700000545000400370022
:104f24008fb8970001054500efb2970005064600cb
:104f34008904e8000d044400890f5700efff3d0089
:104f44001d0037000fb897000000e0001a0035007c
:104f54008e004700d1b79f0000855000000757001e
:104f64000e074700efb697000c8446008004eb0060
:104f74000406fb008d0054000c0178000b0078003f
:104f8400a7fe07000a00e00003003d00dfb297001f
:104f940005054500030037000e0545007fb0970066
:104fa400808545008904e8000d0444008fb897000b
:104fb400898f5000efff3d004f0778004f06be0079
:104fc4004f05be004f04be00af00b1000000060054
:104fd400f2874700889fbe008a9fbe008c9fbe0058
:104fe4008e1f7800d0b79f00e1b79f00a3e79f0012
:104ff40094ef9f0061061100020578008004eb0025
:10500400044078008005fb00afe8970081ef9f0023
:10501400b9b79f00afe097000104e000240032001c
:105024000fe8970000c04400e0ef9f00cfee970028
:105034008d4045000fe897000940500080f79f001d
:105044001fea9700814178006fe9970080ff07000d
:105054008ac056001fea9700814178006fe99700e3
:105064000ff097007aff07008fe897008140450012
:1050740081f79f0089c046000fe897000a4450005a
:105084001fea9700814178000ff1970008407800eb
:105094006fff070089c056001fea9700814178001e
:1050a4000ff197000840780069ff070031003700ce
:1050b400efb09700010445005fb097000080440002
:1050c40080bf9f000b0178008800780054fe070021
:1050d400efb09700818644005fb097000007450059
:1050e4000b0178008d0078000e0078004cfe07005c
:1050f400dfb0970089805000f1b79f000b01780062
:10510400880078007fb0970045fe07005fb09700e5
:105114000a005000a0b79f000b0178008d007800b2
:105124003ffe0700efb09700898650000b0178001e
:105134008d0078000e00780039fe07006fb09700ec
:105144000a0450000b017800880078000fb897001b
:1051540033fe07000b017800880078007fb09700c9
:105164002ffe07000b0178008d0078002fb0970008
:105174002bfe07000c00e00005003d00630646001e
:10518400098044000c0640000900e80007003700cd
:1051940065064600bfb097000a805000000040003a
:1051a400000646000900e8000a05e9008904e80051
:1051b4008a0f500096ff34004f0778004f06be0058
:1051c4004f05be004f04be002f01b10000000600d1
:1051d400889fbe008a9fbe008c9fbe0080447800da
:1051e40081467800824578000344780005457800bc
:1051f4000404e0001000320088cf560003003100a0
:10520400084678000d447800010037000d46780008
:105214000a427800884178000b4178008840780081
:10522400094078000aff07000844e800884f560048
:10523400f7ff3100180037000a4278008d417800ea
:105244000b4178008d4078000940780000ff07008a
:105254000a427800884178000b4178008840780041
:1052640009407800fafe07000a4278008841780075
:10527400094178008d40780009407800f4fe070069
:105284000a427800884178000b4178008d4078000c
:105294000b407800eefe07004f06be004f05be002f
:1052a4004f04be0000000600889fbe008a1f7800dd
:1052b4008044780001447800040578000504e00087
:1052c4000e003a0015c0b3000042eb00884078009d
:1052d40009407800beff07008880fb00e88040009a
:1052e4000980fb006500400014c0b30013002000d7
:1052f4000a01780034fe07000e003700e1cf5200a7
:105304000c003a0005427800884078000940780093
:10531400afff07008880fb00e88040000980fb00a5
:10532400650040000042eb00130020000a017800f1
:1053340025fe07004f0578004f04be00000006005c
:105344003200fa00889fbe008a1f780080447800eb
:105354000144780002457800849fbe00869fbe0009
:1053640040222a00801f7800e0fb2f000f0040003d
:105374007eef07008880fb000980fb0014c0b300a7
:105384008a81fb00e2fb2f000f0141000efe0700a3
:10539400ea8757004f0578004f04be000080fa00ea
:1053a400000006001400fa00889fbe008a1f7800df
:1053b400804478000144780004457800829fbe0050
:1053c40090222a00801f780000fe2f000f0040006a
:1053d40066ef07008880fb000980fb0014c0b3005f
:1053e4008a81fb0002fe2f000f014100f6fd070039
:1053f400e68757004f0578004f04be000080fa008e
:10540400000006000004e0000300320070cab3008c
:105414004bfd07000200370060cab30048fd0700d7
:1054240000000600889fbe00004478008144780094
:1054340060c2b30042fd07000040eb0040fd0700de
:10544400084078003efd07000040eb003cfd0700eb
:10545400094078003afd07000040eb0038fd0700e2
:1054640000c0eb0036fd0700f0c2b30034fd0700b6
:105474004f04be0000000600889fbe000044780070
:105484008144780070c2b3002dfd07000040eb009a
:105494002bfd07000840780029fd07000040eb00c1
:1054a40027fd07000940780025fd07000040eb00b8
:1054b40023fd070000c0eb0021fd0700f0c2b3008c
:1054c4001ffd07004f04be0000000600889fbe00b9
:1054d400004478008144780030cab30018fd070006
:1054e4000040eb0016fd070000c4b30014fd0700e4
:1054f40090c2b30012fd07000040eb0010fd07004e
:10550400084078000efd07000040eb000cfd07008a
:10551400094078000afd070010c0b30008fd070029
:10552400f0c2b30006fd07004f04be0000000600f1
:10553400889fbe00004478008144780030cab300dc
:10554400fffc07000040eb00fdfc070000c4b300b3
:10555400fbfc0700a0c2b300f9fc07000040eb000d
:10556400f7fc070008407800f5fc07000040eb005a
:10557400f3fc070009407800f1fc070010c0b300f9
:10558400effc0700f0c2b300edfc07004f04be00bf
:1055940000000600e0c2b300e9fc070000000600ba
:1055a400881f7800f8ccb3000004e000010032004a
:1055b4000044eb0010c8b300e1fc07000840780089
:1055c400dffc07004f047800000006008003780029
:1055d40001037800f4032000840f53002c003e00e4
:1055e4000700e00002003d00070141008003eb00da
:1055f4008702410004082000848f52000200340016
:1056040004017800070151000200e000200034008a
:1056140084002000110009000403d800000278006f
:105624004722dd0045022100050242000700420036
:10563400e7006300140020008120dd00848f510006
:105644000400320008003900e28f510010003a00d3
:105654000b00370010c870000000e8000201e900e8
:10566400fcff3a000a00370081c0ea0010c860005d
:105674000000e8000201e900fcff3a0004003700e2
:1056840010c868000000e8000201e900fcff3a00cd
